:03000000020BD41C
:0C0BD400787FE4F6D8FD758169020C1BE7
:100CD40044697374006B6D004172726976656400D7
:100CE40057454C434F4D4520544F20425553456E74
:0D0CF40074657220746865204275730000FD
:100C600020320A53746F7020310000000053746FFB
:100C70007020320000000053746F702033000000B9
:100C80000053746F7020340000000053746F7020A4
:100C900035000000000A3C00320028001E0014004D
:050CA0000A02460000FD
:10080000784A7C007D007BFF7A0C79E47E007F0EC5
:10081000120B0A78587C007D007BFF7A0C79F27EFF
:10082000007F0F120B0A120D247B007A00794A1206
:100830000D01120CAA7FC0120D3D7B007A00795881
:10084000120D01120CAA7F01120D3DC293D294C267
:1008500096C2B0D2B2D2B120B42F7F31120D47E58B
:100860004925E02408F876000876017F647E0012AE
:100870000CAE3094147F647E00120CAE120D517FCA
:10088000C87E00120CAE120D56C2B0D2B2D2B12048
:10089000B5247F32120D47E54925E02408F876009B
:1008A000087602120CAA30940D120D517FF47E01CD
:1008B000120CAE120D56C2B0D2B2D2B120B6247F05
:1008C00033120D47E54925E02408F8760008760341
:1008D000120CAA30940D120D517FF47E01120CAE51
:1008E000120D56C2B1D2B2D2B020B4247F34120D50
:1008F00047E54925E02408F87600087604120CAA9A
:1009000030940D120D517FF47E01120CAE120D5673
:10091000C2B1D2B2D2B0C2B1D2B2D2B020B60E7F82
:1009200036120D47120CAA309303120D51C2B2D2E7
:10093000B0D2B120B40E7F37120D47120CAA3093FB
:1009400003120D51C2B2D2B0D2B120B50E7F38120F
:100950000D47120CAA309303120D51C2B2D2B0D27D
:10096000B120B60E7F39120D47120CAA3093031234
:100970000D517FC87E00120CAEE54925E02408F831
:10098000E6FE08E6FFC3E5479FEE6480F8E54664AF
:10099000809840030208517F01120D3DE54775F034
:1009A0000AA4240AF9E4FAFB120D017FC0120D3DDE
:1009B0007BFF7A0C79D4120D01E54725E0243CF841
:1009C000E6FE08E6FF7C007D0A120B49EF2430FFAB
:1009D000120D47E54725E0243CF8E6FE08E6FF7CDB
:1009E000007D0A120B49ED2430FF120D477BFF7A80
:1009F0000C79D9120D017FB87E0B120CAE0547E5BC
:100A00004770020546E54925E02408F8E6FE08E6B9
:100A100065477003E5466E60030209797F64FE1244
:100A20000CAE7F01120D3D7F80120D3D7BFF7A0CD5
:0A0A300079DC120D01D2960209795B
:100D24007F30120D3D7F38120D3D7F01120D3D7F46
:090D34000C120D3D7F80020D3D03
:0A0D3D008FA0C285120CA6C2872207
:0A0D47008FA0D285120CA6C28722ED
:080CA600C286D2877F327E0076
:100CAE00E4FDFCC3ED9FEE6480F8EC648098501573
:100CBE00E4FBFA0BBB00010ABA01F8BB2CF50DBD23
:050CCE0000010C80DEB6
:010CD30022FE
:100D01008B678A688969AB67AA68A969120B30FF8A
:100D11006010120D4774012569F569E43568F568BD
:030D210080E42249
:050D5100D291C29222C4
:050D5600C291C29222CF
:100BE000020800E493A3F8E493A34003F68001F223
:100BF00008DFF48029E493A3F85407240CC8C33316
:100C0000C4540F4420C8834004F456800146F6DFE4
:100C1000E4800B0102040810204080900C60E47E08
:100C2000019360BCA3FF543F30E509541FFEE493D9
:100C3000A360010ECF54C025E060A840B8E493A3A0
:100C4000FAE493A3F8E493A3C8C582C8CAC583CACB
:100C5000F0A3C8C582C8CAC583CADFE9DEE780BE83
:010CA500004E
:100A3A00E709F608DFFA8046E709F208DFFA803E9E
:100A4A0088828C83E709F0A3DFFA8032E309F6088B
:100A5A00DFFA8078E309F208DFFA807088828C83F3
:100A6A00E309F0A3DFFA806489828A83E0A3F608A7
:100A7A00DFFA805889828A83E0A3F208DFFA804C81
:100A8A0080D280FA80C680D4806980F28033801058
:100A9A0080A680EA809A80A880DA80E280CA8033C1
:100AAA0089828A83ECFAE493A3C8C582C8CCC58339
:100ABA00CCF0A3C8C582C8CCC583CCDFE9DEE78009
:100ACA000D89828A83E493A3F608DFF9ECFAA9F088
:100ADA00EDFB2289828A83ECFAE0A3C8C582C8CCDE
:100AEA00C583CCF0A3C8C582C8CCC583CCDFEADEF7
:100AFA00E880DB89828A83E493A3F208DFF980CC59
:100B0A0088F0EF60010E4E60C388F0ED2402B40451
:100B1A000050B9F582EB2402B4040050AF232345F8
:060B2A008223900A8A7389
:100B3000BB010689828A83E0225002E722BBFE02C3
:090B4000E32289828A83E49322F6
:100B4900C2D5EC30E709B2D5E4C39DFDE49CFCEEC7
:100B590030E715B2D5E4C39FFFE49EFE120B7FC3B5
:100B6900E49DFDE49CFC8003120B7F30D507C3E4B0
:060B79009FFFE49EFE2236
:100B7F00BC000BBE0029EF8DF084FFADF022E4CC5A
:100B8F00F875F008EF2FFFEE33FEEC33FCEE9DEC23
:100B9F00984005FCEE9DFE0FD5F0E9E4CEFD22ED69
:100BAF00F8F5F0EE8420D21CFEADF075F008EF2FB3
:100BBF00FFED33FD4007985006D5F0F222C398FDA4
:050BCF000FD5F0EA2241
:00000001FF
